:100000000C942A000C9434000C9434000C943400AA
:100010000C9434000C9434000C9434000C94340090
:100020000C9434000C9434000C9434000C94340080
:100030000C9434000C9434000C9434000C94340070
:100040000C9434000C9434000C9434000C94340060
:100050000C94340011241FBECFE5D8E0DEBFCDBF25
:100060000E9491000C944E020C9400008BB38160AE
:100070008BBB8BB38D7F8BBB8BB384608BBB8BB304
:10008000877F8BBB08958BB38E7F8BBB8BB38260D6
:100090008BBB8BB38B7F8BBB8BB388608BBB089583
:1000A0008BB381608BBB8BB382608BBB8BB3846063
:1000B0008BBB8BB388608BBB08958BB381608BBB8C
:1000C0008BB382608BBB8BB384608BBB8BB3877F1E
:1000D0008BBB08958BB381608BBB8BB38D7F8BBB48
:1000E0008BB384608BBB8BB388608BBB08958BB361
:1000F0008E7F8BBB8BB382608BBB8BB384608BBBDF
:100100008BB3877F8BBB08958BB381608BBB8BB325
:100110008D7F8BBB8BB38B7F8BBB8BB388608BBB93
:1001200008958FE08ABB17BA1BBA18BAB09B11C0EA
:10013000B19B0FC0B29B0DC0B39B0BC0B49B09C059
:10014000B59B07C0B69B05C0B79B03C00E9450007B
:10015000EDCFB09911C0B1990FC0B2990DC0B3994C
:100160000BC0B49909C0B59907C0B69905C0B79935
:1001700003C00E943600DACFB09B11C0B19B0FC004
:10018000B29B0DC0B3990BC0B49909C0B59907C013
:10019000B69905C0B79903C00E947700C7CFB09940
:1001A00011C0B19B0FC0B29B0DC0B39B0BC0B499E3
:1001B00009C0B59907C0B69905C0B79903C00E9498
:1001C0005D00B4CFB09911C0B1990FC0B29B0DC002
:1001D000B39B0BC0B49B09C0B59907C0B69905C0C5
:1001E000B79903C00E943600A1CFB09911C0B19950
:1001F0000FC0B2990DC0B39B0BC0B49B09C0B59B97
:1002000007C0B69905C0B79903C00E9436008ECFCB
:10021000B09911C0B1990FC0B2990DC0B3990BC07C
:10022000B49B09C0B59B07C0B69B05C0B79903C076
:100230000E946A007BCFB09911C0B1990FC0B299EA
:100240000DC0B3990BC0B49909C0B59B07C0B69B4C
:1002500005C0B79B03C00E94840068CFB09B11C04B
:10026000B19B0FC0B2990DC0B3990BC0B49909C02E
:10027000B59907C0B69905C0B79903C00E94770029
:1002800055CFB09911C0B19B0FC0B29B0DC0B399AF
:100290000BC0B49909C0B59907C0B69905C0B79904
:1002A00003C00E94770042CFB09911C0B1990FC02E
:1002B000B29B0DC0B39B0BC0B49909C0B59907C0E0
:1002C000B69905C0B79903C00E945D002FCFB099C1
:1002D00011C0B1990FC0B2990DC0B39B0BC0B49BB4
:1002E00009C0B59907C0B69905C0B79903C00E9467
:1002F00036001CCFB09911C0B1990FC0B2990DC092
:10030000B3990BC0B49B09C0B59B07C0B69905C093
:10031000B79903C00E946A0009CFB09911C0B19982
:100320000FC0B2990DC0B3990BC0B49909C0B59B69
:1003300007C0B69B05C0B79903C00E948400F6CEE3
:10034000B09911C0B1990FC0B2990DC0B3990BC04B
:10035000B49909C0B59907C0B69B05C0B79B03C047
:100360000E948400E3CEB09B11C0B1990FC0B29936
:100370000DC0B3990BC0B49909C0B59907C0B6991F
:1003800005C0B79903C00E947700D0CEB09911C0C4
:10039000B19B0FC0B2990DC0B3990BC0B49909C0FD
:1003A000B59907C0B69905C0B79903C00E947700F8
:1003B000BDCEB09911C0B1990FC0B29B0DC0B39919
:1003C0000BC0B49909C0B59907C0B69905C0B799D3
:1003D00003C00E945D00AACEB09911C0B1990FC0B0
:1003E000B2990DC0B39B0BC0B49909C0B59907C0B1
:1003F000B69905C0B79903C00E94360097CEB09950
:1004000011C0B1990FC0B2990DC0B3990BC0B49B84
:1004100009C0B59907C0B69905C0B79903C00E9435
:10042000360084CEB09911C0B1990FC0B2990DC0F9
:10043000B3990BC0B49909C0B59B07C0B69905C064
:10044000B79903C00E946A0071CEB09911C0B199EA
:100450000FC0B2990DC0B3990BC0B49909C0B5993A
:1004600007C0B69B05C0B79903C00E9484005ECE4A
:10047000B09911C0B1990FC0B2990DC0B3990BC01A
:10048000B49909C0B59907C0B69905C0B79B03C018
:100490000E9484004BCE0E94430048CEF894FFCFC8
:00000001FF
